:100000000C94340018950000189500001895000015
:10001000189500001895000018950000189500002C
:10002000189500001895000018950000189500001C
:10003000189500001895000018950000189500000C
:1000400018950000189500001895000018950000FC
:1000500018950000189500001895000018950000EC
:1000600018950000189500008FEF8DBFC8EDE0ECEB
:100070004E2E88E08EBFD8E0F8E05F2EA89584B7BA
:10008000082E877F84BF88E1992780936000909332
:100090006000EEEFF7E0A0E0B1E088278D933197A4
:1000A000E9F76624259A249A239A229A219A84EFC2
:1000B00091E00E948F002D9A2C982B9829982A9ACB
:1000C00080ED97E00E948F002A98299A80ED97E0B2
:1000D0000E948F002C9A80ED97E00E948F002D984F
:1000E0002C982B9A80ED97E00E948F002B982C9AE9
:1000F00080ED97E00E948F002C982D9A80ED97E07C
:100100000E948F0029982A9A0C9460003197F1F789
:100110000895689462F80895E89462F80895EF935A
:10012000FF93EE27E82BE92B31F0E0EAFFE031976F
:0C013000F1F70197D1F7FF91EF910895CE
:00000001FF
