:100000000C94340018950000189500001895000015
:10001000189500001895000018950000189500002C
:10002000189500001895000018950000189500001C
:10003000189500001895000018950000189500000C
:1000400018950000189500001895000018950000FC
:1000500018950000189500001895000018950000EC
:1000600018950000189500008FEF8DBFC8EDE0ECEB
:100070004E2E88E08EBFD8E0F8E05F2EA89584B7BA
:10008000082E877F84BF88E1992780936000909332
:100090006000EEEFF7E0A0E0B1E088278D933197A4
:1000A000E9F76624259A249A239A229A219A84EFC2
:1000B00091E00E94AB000E94870080ED97E00E94D3
:1000C000AB002A98299A0E948D0080ED97E00E944B
:1000D000AB002C9A80ED97E00E94AB002D982C98F5
:1000E0002B9A80ED97E00E94AB002B982C9A80ED24
:1000F00097E00E94AB002C982D9A0E948D0080ED15
:1001000097E00E94AB0029982A9A0C945D002D9AE2
:100110002C982B9829982A9A08952D98299888EC3C
:1001200090E00E94AB002D9A299A88EC90E00E9402
:10013000AB002D98299888EC90E00E94AB002D9A96
:10014000299A08953197F1F70895689462F808950F
:10015000E89462F80895EF93FF93EE27E82BE92BDC
:1001600031F0E0EAFFE03197F1F70197D1F7FF9125
:04017000EF9108956E
:00000001FF
